{
  "contractName": "BillOfSale",
  "abi": [
    {
      "constant": true,
      "inputs": [],
      "name": "seller",
      "outputs": [
        {
          "name": "",
          "type": "address"
        }
      ],
      "payable": false,
      "stateMutability": "view",
      "type": "function",
      "signature": "0x08551a53"
    },
    {
      "constant": true,
      "inputs": [],
      "name": "buyer",
      "outputs": [
        {
          "name": "",
          "type": "address"
        }
      ],
      "payable": false,
      "stateMutability": "view",
      "type": "function",
      "signature": "0x7150d8ae"
    },
    {
      "constant": true,
      "inputs": [],
      "name": "price",
      "outputs": [
        {
          "name": "",
          "type": "uint256"
        }
      ],
      "payable": false,
      "stateMutability": "view",
      "type": "function",
      "signature": "0xa035b1fe"
    },
    {
      "constant": true,
      "inputs": [],
      "name": "descr",
      "outputs": [
        {
          "name": "",
          "type": "string"
        }
      ],
      "payable": false,
      "stateMutability": "view",
      "type": "function",
      "signature": "0xbbba3644"
    },
    {
      "payable": true,
      "stateMutability": "payable",
      "type": "fallback"
    },
    {
      "constant": false,
      "inputs": [
        {
          "name": "_descr",
          "type": "string"
        },
        {
          "name": "_price",
          "type": "uint256"
        },
        {
          "name": "_seller",
          "type": "address"
        },
        {
          "name": "_buyer",
          "type": "address"
        }
      ],
      "name": "recordContract",
      "outputs": [],
      "payable": false,
      "stateMutability": "nonpayable",
      "type": "function",
      "signature": "0x0585ea69"
    },
    {
      "constant": false,
      "inputs": [],
      "name": "confirmReceipt",
      "outputs": [],
      "payable": true,
      "stateMutability": "payable",
      "type": "function",
      "signature": "0x7d94ad98"
    }
  ],
  "bytecode": "0x608060405234801561001057600080fd5b5061073a806100206000396000f3fe608060405260043610610078576000357c0100000000000000000000000000000000000000000000000000000000900463ffffffff1680630585ea691461007a57806308551a531461018c5780637150d8ae146101e35780637d94ad981461023a578063a035b1fe14610244578063bbba36441461026f575b005b34801561008657600080fd5b5061018a6004803603608081101561009d57600080fd5b81019080803590602001906401000000008111156100ba57600080fd5b8201836020820111156100cc57600080fd5b803590602001918460018302840111640100000000831117156100ee57600080fd5b91908080601f016020809104026020016040519081016040528093929190818152602001838380828437600081840152601f19601f82011690508083019250505050505050919291929080359060200190929190803573ffffffffffffffffffffffffffffffffffffffff169060200190929190803573ffffffffffffffffffffffffffffffffffffffff1690602001909291905050506102ff565b005b34801561019857600080fd5b506101a16103a4565b604051808273ffffffffffffffffffffffffffffffffffffffff1673ffffffffffffffffffffffffffffffffffffffff16815260200191505060405180910390f35b3480156101ef57600080fd5b506101f86103c9565b604051808273ffffffffffffffffffffffffffffffffffffffff1673ffffffffffffffffffffffffffffffffffffffff16815260200191505060405180910390f35b6102426103ef565b005b34801561025057600080fd5b506102596105c5565b6040518082815260200191505060405180910390f35b34801561027b57600080fd5b506102846105cb565b6040518080602001828103825283818151815260200191508051906020019080838360005b838110156102c45780820151818401526020810190506102a9565b50505050905090810190601f1680156102f15780820380516001836020036101000a031916815260200191505b509250505060405180910390f35b8360029080519060200190610315929190610669565b5082600381905550816000806101000a81548173ffffffffffffffffffffffffffffffffffffffff021916908373ffffffffffffffffffffffffffffffffffffffff16021790555080600160006101000a81548173ffffffffffffffffffffffffffffffffffffffff021916908373ffffffffffffffffffffffffffffffffffffffff16021790555050505050565b6000809054906101000a900473ffffffffffffffffffffffffffffffffffffffff1681565b600160009054906101000a900473ffffffffffffffffffffffffffffffffffffffff1681565b600160009054906101000a900473ffffffffffffffffffffffffffffffffffffffff1673ffffffffffffffffffffffffffffffffffffffff163373ffffffffffffffffffffffffffffffffffffffff161415156104b4576040517f08c379a00000000000000000000000000000000000000000000000000000000081526004018080602001828103825260168152602001807f6f6e6c792062757965722063616e20636f6e6669726d0000000000000000000081525060200191505060405180910390fd5b6003543073ffffffffffffffffffffffffffffffffffffffff1631141515610544576040517f08c379a000000000000000000000000000000000000000000000000000000000815260040180806020018281038252601d8152602001807f7075726368617365207072696365206d7573742062652066756e64656400000081525060200191505060405180910390fd5b6000809054906101000a900473ffffffffffffffffffffffffffffffffffffffff1673ffffffffffffffffffffffffffffffffffffffff166108fc3073ffffffffffffffffffffffffffffffffffffffff16319081150290604051600060405180830381858888f193505050501580156105c2573d6000803e3d6000fd5b50565b60035481565b60028054600181600116156101000203166002900480601f0160208091040260200160405190810160405280929190818152602001828054600181600116156101000203166002900480156106615780601f1061063657610100808354040283529160200191610661565b820191906000526020600020905b81548152906001019060200180831161064457829003601f168201915b505050505081565b828054600181600116156101000203166002900490600052602060002090601f016020900481019282601f106106aa57805160ff19168380011785556106d8565b828001600101855582156106d8579182015b828111156106d75782518255916020019190600101906106bc565b5b5090506106e591906106e9565b5090565b61070b91905b808211156107075760008160009055506001016106ef565b5090565b9056fea165627a7a72305820fd6c9b737ab3532c7acc2a9ad5e24e8e1285bce96ae46f419fcf57137f9394900029",
  "source": "pragma solidity ^0.5.0;\n\ncontract BillOfSale {\n  address payable public seller;\n  address public buyer;\n  string public descr;\n  uint public price;\n\n  function recordContract(string memory _descr, uint _price,\n    address payable _seller, address _buyer\n  ) public {\n    descr = _descr;\n    price = _price;\n    seller = _seller; \n    buyer = _buyer;\n  }\n\n  function () external payable { }\n\n  function confirmReceipt() public payable {\n    require(msg.sender == buyer, \"only buyer can confirm\");\n    require(address(this).balance == price, \"purchase price must be funded\");\n    address(seller).transfer(address(this).balance);\n  }\n}",
  "sourcePath": "/home/josh/dev/ol-dapp/contracts/BillOfSale.sol",
  "compiler": {
    "name": "solc",
    "version": "0.5.0+commit.1d4f565a.Emscripten.clang"
  },
  "schemaVersion": "3.0.0",
  "updatedAt": "2019-01-12T07:37:27.907Z",
  "devdoc": {
    "methods": {}
  },
  "userdoc": {
    "methods": {}
  }
}